:020000020000FC
:0200000020C01E
:02000C008AC3A5
:0200240050C3C7
:0200340064C3A3
:100040006AC3239A249A259A22982A9A0FE010EFDD
:100050001AB90BB93A9A429A219A299841E04093E9
:10006000830340E040938403409385030E946C0225
:10007000789405E00093B10005E00093810005E06D
:1000800005BD01E014E00093680010936B0096E05A
:10009000B2E0D2E0C0E5A0E914E100E008830C93EF
:1000A0001A95E1F70E945E000E946E00429A20912C
:1000B00080032130B9F70E94C401F4CF48E0409397
:1000C00086030E94F3020E9429030E943603409196
:1000D00086034A9540938603A1F7089540918303D0
:1000E000413039F04230A9F04330F9F0443039F171
:1000F0000895F7E0E0E640EC409381034FE1409340
:10010000820300E000936F0000936E000093700084
:10011000089501E000936F0000936E00009370005B
:100120000E94A900F1E0E0E0089500E000936F0074
:1001300000936E0000937000F7E0E8EE089500E091
:1001400000936F0000936E0000937000F8E0E8E603
:10015000089529B13ED239B141D2232B2093870390
:100160002B3D39F02B3749F02B3B59F02F3F69F0ED
:10017000089542E040938503089544E04093850349
:10018000089546E0409385030895409185034230E9
:1001900029F0443049F0463069F0089540E040933A
:1001A00085030E94F601089540E0409385030E9474
:1001B0003102089540E0409385030E949301089521
:1001C000EF93FF932F934F932F922FB6EAE0D2E055
:1001D000B2E0C0E5A0E941E30E943E030E943B017A
:1001E000A3E947E20E943E030E943B01A6E94DE1DC
:1001F0000E943E030E943B01A9E943E10E943E03A5
:100200000E943B01ACE949E00E943E030E943B0191
:10021000AFE940E40E943E030E943B01A2EA46E3AC
:100220000E943E030E943B01A5EA4CE20E943E036D
:100230000E943B01A8EA42E20E943E030E943B0169
:10024000ABEA48E10E943E030E943B01AEEA4EE069
:100250000E943E030E943B01A1EB44E00E943E034A
:100260000E943B010E94CB022FBE2F904F912F91F5
:10027000FF91EF91089508811C91003021F0402FEB
:10028000411B4030B1F1202F212B2293110F1D93E0
:1002900028F4E39520812F3181F1EA958894069521
:1002A000099310F400E8088308811C91202F012B8A
:1002B00002932695299310F400E80883110F1C93EC
:1002C00018F411E01E93A395A39508811C91202F8B
:1002D000012B02932695299328F4EA952081293F42
:1002E000B9F0E3958894110F1C9310F411E01E935C
:1002F000089500E008830C93089520918103220F54
:1003000019F020938103089543E0409383030895F7
:1003100020918203269519F020938203089544E0EA
:10032000409383030895EF93FF932F922FB6EAE053
:10033000C0E501A91FD007A11DD0058D1BD00389E1
:1003400019D0018517D040E40E943E03008112D0ED
:10035000EAE006A90FD004A50DD002A10BD0008DB4
:1003600009D0068507D0048105D02FBE2F90FF91BC
:10037000EF9108950F3121F4088110E8012B0883D3
:10038000C395C395C3950895B2E0EF93FF932F9360
:100390002F922FB6963089F0953089F0943089F0FD
:1003A000933089F0923089F0913089F096E02FBE39
:1003B0002F902F91FF91EF911895A2E909C0A5E91F
:1003C00007C0AEE905C0A1EA03C0AAEA01C0ADEAD0
:1003D0000C9111E0012B0C939A9520E0209380035F
:1003E0002FBE2F902F91FF91EF910895F1E0EEE055
:1003F0003081E8E14081EEE04083E2E24081E8E1E3
:100400004083ECE24081E2E24083E6E34081ECE2BB
:100410004083E0E44081E6E34083EAE44081E0E4B5
:100420004083E3E14081EAE44083EDE14081E3E1A0
:100430004083E7E24081EDE14083E1E34081E7E290
:100440004083EBE34081E1E34083E5E44081EBE37B
:100450004083EFE44081E5E44083EFE43083E0E073
:100460000895F1E0EFE43081E5E44081EFE440837A
:10047000EBE34081E5E44083E1E34081EBE340834B
:10048000E7E24081E1E34083EDE14081E7E2408340
:10049000E3E14081EDE14083EAE44081E3E1408330
:1004A000E0E44081EAE44083E6E34081E0E4408325
:1004B000ECE24081E6E34083E2E24081ECE240830B
:1004C000E8E14081E2E24083EEE04081E8E1408300
:1004D000EEE03083E0E00895E0E0F1E009EF009322
:1004E00012020FE10093130200E1009314020E9434
:1004F000D5020FE10093120209EF0093130200E00E
:10050000009314020E94D5020FE1009312020FE142
:100510000093130200E0009314020E94D50209EF39
:10052000009312020FE10093130200E10093140202
:100530000E94D50209EF0093120209EF0093130203
:100540000EE3009314020E94D5020FE10093120201
:1005500009EF009313020FE1009314020E94D502E9
:100560000FE1009312020FE1009313020EE30093D8
:1005700014020E94D50209EF009312020FE10093CA
:10058000130200E1009314020E94D5020E94CB02E4
:10059000E0E0F1E0089540918103F1E0EEE4408372
:1005A00040918203ECE4408308952091120221934C
:1005B00020E014E021931A95E9F72091130221938A
:1005C00020E013E021931A95E9F72091140221937A
:1005D000089500EF1FE00BB91AB908950FE010EF6E
:1005E0000BB91AB9089540918303423019F100C044
:1005F0001091860335911A95E9F720E115E02B98C3
:1006000030FD2B9A2D982D9A36951A95C1F718E042
:1006100035911A95E9F72A9589F720E118E032918A
:100620001A95E9F72A95D1F71091860332911A9518
:10063000E9F708952AE0308118E02B9830FD2B9AD5
:100640002D982D9A36951A95C1F731912A9599F7DB
:10065000089518E088942B9840918603141709F4A4
:100660002B9A2D982D9A1A95B1F708952C982C9ABB
:100670001FEF00001A95E9F72C980895EAE0F1E0E1
:10068000E3954A95E9F7089514E60000CFEF0000DE
:10069000CA95E9F71A95C9F7089518E52B982D988A
:1006A0002D9A1A95E1F72C982C9A2C980895EF938F
:1006B000FF932F922F934F932FB62FBE4F912F91D1
:1006C0002F90FF91EF910FB6809187038B3729F020
:1006D0008B3B49F08B3D09F00CC08EE28093B20059
:1006E000199A0FBE18958EE18093B200199A0FBE29
:1006F00018958FEF8093B200199A0FBE18950FEFDF
:100700001FED00938400109385002F9321E0209328
:1007100080032F91189511E016BD0E94E0004298C9
:1007200018954091840340FF0E949E0340918403EA
:1007300043954093840300E00BBB189540918303DD
:10074000413031F0423021F0433031F0443021F07B
:10075000439540938303089541E0409383030895B4
:100760000000000000000000000000000000000089
:100770000000001F000000000000001F000000003B
:100780000000001F000000000000001F000000002B
:100790000000000000000000000000000000000059
:1007A0000000000000000000040404040400040031
:1007B0000E040404040404000E09090E0C0A0900C6
:1007C0000609090F090909000E04040404040400C1
:1007D0000708080601010E000004020102040000DF
:1007E00000000000000000000E09090E0C0A0900BC
:1007F0000F08080F08080F0011111111110A040049
:1008000006090909090906000000000000000000AF
:1008100000040201020400000004020102040000BE
:1008200000000000000000000000000000000000C8
:10083000000402010204000000040201020400009E
:1008400000000000000000000F08080F08080F005B
:10085000111B1511111111000609090F09090900D1
:100860000609080B0909060000000000000000004E
:1008700000040E1B0E04000000040E1B0E040000FA
:1008800000040E1B0E04000000040E1B0E040000EA
:1008900000040E1B0E04000000040E1B0E040000DA
:1008A00000000000000000001111191513111110B3
:1008B0000E04040404040E0011111111151B110083
:1008C0000000000000000000000000000000000028
:1008D00009090909090906000609090909090600A3
:0808E000110A040404040404DD
:00000001FF
