:020000020000FC
:020000001AC024
:100034007DC2239A249A259A22982A9A0FE010EFD7
:100044001AB90BB93A9A429A51E060E080E00E94F2
:10005400BE01789401E000936F0004E000938100F6
:1000640096E00E943E000E9448000E945500429A79
:10007400F8CFF6E0E4E0089578E00E9439020E94A7
:100084006C020E9477027A95C1F7089503B002FAD0
:100094002EF400C060FD539560E004C060FF5395EA
:1000A40061E000C00895513069F0523059F0533086
:1000B40061F0543051F0553089F0563079F05730B2
:1000C40081F00895F5E0ECE708950E9475000E9420
:1000D4009C000E948502F1E0E0E00895F6E0E4E08F
:1000E400089551E0089529B1B8D139B1BBD1232B7A
:1000F4002B3D39F02B3739F02B3B39F02F3F39F0BA
:10010400089582E0089584E0089586E00895823099
:1001140029F0843039F0863049F0089580E00E9457
:100124004801089580E00E948301089580E00E94C0
:100134001F010895EAE0D2E0B2E0C0E5A0E941E39E
:100144000E947F020E94E900A3E947E20E947F0225
:100154000E94E900A6E94DE10E947F020E94E900A5
:10016400A9E943E10E947F020E94E900ACE949E069
:100174000E947F020E94E900AFE940E40E947F02EE
:100184000E94E900A2EA46E30E947F020E94E9007D
:10019400A5EA4CE20E947F020E94E900A8EA42E23A
:1001A4000E947F020E94E900ABEA48E10E947F02BC
:1001B4000E94E900AEEA4EE00E947F020E94E9003C
:1001C400A1EB44E00E947F020E94E90008950881A7
:1001D4001C91003021F0402F411B403051F1202F61
:1001E400212B2293110F1D9388940695099310F4E3
:1001F40000E8088308811C91202F012B0293269587
:10020400299310F400E80883110F1C9318F411E0EB
:100214001E93A395A39508811C91202F012B029373
:10022400269529938894110F1C9310F411E01E93C2
:10023400089500E008830C930895EAE0C0E501A95D
:100244001BD007A119D0058D17D0038915D00185BE
:1002540013D040E40E947F0200810ED0EAE006A998
:100264000BD004A509D002A107D0008D05D00685C6
:1002740003D0048101D008950F3121F4088110E8DE
:10028400012B0883C395C395C3950895F1E0EEE06F
:100294003081E8E14081EEE04083E2E24081E8E140
:1002A4004083ECE24081E2E24083E6E34081ECE219
:1002B4004083E0E44081E6E34083EAE44081E0E413
:1002C4004083E3E14081EAE44083EDE14081E3E1FE
:1002D4004083E7E24081EDE14083E1E34081E7E2EE
:1002E4004083EBE34081E1E34083E5E44081EBE3D9
:1002F4004083EFE44081E5E44083EFE43083E0E0D1
:100304000895F1E0EFE43081E5E44081EFE44083D7
:10031400EBE34081E5E44083E1E34081EBE34083A8
:10032400E7E24081E1E34083EDE14081E7E240839D
:10033400E3E14081EDE14083EAE44081E3E140838D
:10034400E0E44081EAE44083E6E34081E0E4408382
:10035400ECE24081E6E34083E2E24081ECE2408368
:10036400E8E14081E2E24083EEE04081E8E140835D
:10037400EEE03083E0E00895E0E0F1E009EF00937F
:1003840012020FE10093130200E1009314020E9491
:100394001B020FE10093120209EF0093130200E025
:1003A400009314020E941B020FE1009312020FE15A
:1003B4000093130200E0009314020E941B0209EF51
:1003C400009312020FE10093130200E10093140260
:1003D4000E941B0209EF0093120209EF009313021B
:1003E4000EE3009314020E941B020FE10093120219
:1003F40009EF009313020FE1009314020E941B0201
:100404000FE1009312020FE1009313020EE3009335
:1004140014020E941B0209EF009312020FE10093E1
:10042400130200E1009314020E941B02E0E0F1E0D9
:10043400089520911202219320E014E021931A954B
:10044400E9F720911302219320E013E021931A95F8
:10045400E9F7209114022193089500EF1FE00BB9EE
:100464001AB908950FE010EF0BB91AB90895533073
:1004740011F1543001F1172F35911A95E9F720E164
:1004840015E02B9830FD2B9A2D982D9A36951A95B8
:10049400C1F718E035911A95E9F72A9589F720E113
:1004A40018E032911A95E9F72A95D1F7172F32916E
:1004B4001A95E9F708952AE0308118E02B9830FD69
:1004C4002B9A2D982D9A36951A95C1F731912A9524
:1004D40099F7089518E088942B98171709F42B9A24
:1004E4002D982D9A1A95C1F708952C982C9A1FEFE0
:1004F40000001A95E9F72C980895EAE0F1E0E395F5
:100504004A95E9F7089518EC0000CFEF0000CA956A
:10051400E9F71A95C9F7089518E52B982D982D9A9F
:100524001A95E1F72C982C9A2C9808950FEF1FEA4E
:100534000093840010938500B2E0963061F095300A
:1005440061F0943061F0933061F0923061F0913059
:1005540061F096E01895A2E909C0A5E907C0AEE9E3
:1005640005C0A1EA03C0AAEA01C0ADEA0C9111E0FA
:10057400012B0C939A9518950000000000000000D0
:1005840000000000000000000000001F0000000048
:100594000000001F000000000000001F0000000019
:1005A4000000001F00000000000000000000000028
:1005B4000000000000000000000000000000000037
:1005C40004040404040004000E04040404040400E9
:1005D4000E09090E0C0A09000609090F0909090088
:1005E4000E040404040404000708080601010E00B4
:1005F40000040201020400000000000000000000EA
:100604000E09090E0C0A09000F08080F08080F004C
:1006140011111111110A040006090909090906003A
:1006240000000000000000000004020102040000B9
:1006340000040201020400000000000000000000A9
:100644000000000000000000000402010204000099
:100654000004020102040000000000000000000089
:100664000F08080F08080F00111B151111111100B4
:100674000609090F090909000609080B09090600FA
:10068400000402010204000000040201020400004C
:100694000F08080F08080F00111B15111111110084
:1006A4000609090F090909000609080B09090600CA
:1006B400000402010204000000040201020400001C
:1006C400000402010204000000040201020400000C
:1006D4000F08080F08080F00111B15111111110044
:1006E4000609090F090909000609080B090906008A
:1006F40000040201020400000004020102040000DC
:1007040000000000000000000000000000000000E5
:00000001FF
