:020000020000FC
:0200000020C01E
:100040002AC13A9A429A0FE810E71AB90BB90FEF92
:1000500004B951E0E0E0F1E008E00EBF0FEF0DBFA2
:10006000789401E000936E0005E005BD09E7009378
:1000700012020FE10093130200E400931402C6D0B1
:100080000FE1009312020FE10093130208E70093BF
:1000900014020E9406010FE10093120209E7009387
:1000A00013020CE7009314020E94060109E7009373
:1000B000120209E70093130208E7009314020E945A
:1000C000060109E7009312020FE10093130200E416
:1000D000009314020E9406010FE1009312020FE147
:1000E0000093130200E0009314020E9406010FE146
:1000F0000093120209E70093130200E00093140238
:100100000E940601E0E0F1E071E00E94240101C0DC
:10011000FCCF72D029B18ED039B191D0232B273B9F
:1001200021F051E0E0E0F1E0F0CF4298E0E0F1E0D2
:10013000A0E2B2E000E00D9301850D9303890D93D9
:10014000058D0D9307A10D9301A90D9303AD0D939B
:1001500015E401911A95E9F700810D93E0E0F1E0D3
:1001600004810D9306850D93008D0D9302A10D93CF
:1001700004A50D9306A90D9310E401911A95E9F7D2
:1001800000810D93E0E0F1E0A0E2B2E00D91018783
:100190000D91038B0D91058F0D9107A30D9101AB6F
:1001A0000D9103AF15E401911A95E9F70D910083C4
:1001B000E0E0F1E00D9104830D9106870D91008F31
:1001C0000D9102A30D9104A70D9106AB10E40191CE
:1001D0001A95E9F70D91008351E0E0E0F1E04FEF6F
:1001E0000000CFEF0000D4E00000DA95E9F7CA95EF
:1001F000C9F74A95A9F789CF18E52B982D982D9A1C
:100200001A95E1F72C982C9A2C9808956091120277
:10021000619360E014E061931A95E9F7609113022D
:10022000619360E013E061931A95E9F7609114021D
:100230006193089500E71FE80BB91AB908950FE814
:1002400010E70BB91AB90895429A4AE028E00191E3
:1002500088942B9A079508F02B982D982D9A2A951B
:10026000C1F74A9599F728E0952F88942B98991F04
:1002700008F42B9A2D982D9A2A95C1F72C982C9A30
:10028000A89BFECF550F5038F9F651E0E0E0F1E0C1
:0E029000A0E2B2E008950DEF06BD2C9818957F
:00000001FF
