:020000020000FC
:020000002AC014
:02000C000BC423
:020024008EC389
:02003400A9C35E
:02004000CAC331
:10005400FFC3239A249A259A2098289A22982A9AA8
:100064000FE010EF1AB90BB93A9A429A3B9A439AA5
:10007400219A299808E00EBF0FEF0DBF41E040938D
:10008400830340E0409384034093850349E0409315
:1000940088030E94AE020BEE00937A0001E60093FF
:1000A4007C0005E00093B10004E00093810005E0CA
:1000B40005BD0FEF1FEE009384001093850001E04F
:1000C40000936F0001E014E00093680010936B004C
:1000D400789496E00E948A000E949A001FEF209173
:1000E4009203203011F00E942C0220E0209392030E
:1000F40020919303203011F00E946D0220E02093A0
:10010400930320918003213029F70E94FF01E2CF5D
:1001140048E0409386030E9435030E946B030E94CB
:100124007803409186034A9540938603A1F7089586
:1001340040918303413039F0423099F04330E9F083
:10014400443029F10895F8E0E0ED40EC4093810358
:100154004FE14093820300E000936E00009370002F
:10016400089501E000936F0000936E000093700007
:100174000E94D300F1E0E0E0089500E000936F00F6
:1001840000936E0000937000F9E0E8E5089500E044
:1001940000936F0000936E0000937000F9E0E8EDA7
:1001A400089529B156D239B159D2232B209387030C
:1001B4002B3D39F02B3761F02B3B89F02F3F99F021
:1001C400089542E04093850340E0409390030895EE
:1001D40044E04093850340E040938903089546E05A
:1001E40040938503089540918503423029F04430BB
:1001F40049F0463069F0089540E0409385030E9439
:100204002C02089540E0409385030E946D020895F6
:1002140040E0409385030E94C9010895EF93FF9342
:10022400CF93DF932F934F932F924F932FB6EAE000
:10023400D2E0B2E0C0E5A0E941E30E9480030E945D
:100244007101A3E947E20E9480030E947101A6E9BB
:100254004DE10E9480030E947101A9E943E10E94DB
:1002640080030E947101ACE949E00E9480030E946E
:100274007101AFE940E40E9480030E947101A2EA87
:1002840046E30E9480030E947101A5EA4CE20E94A9
:1002940080030E947101A8EA42E20E9480030E9446
:1002A4007101ABEA48E10E9480030E947101AEEA49
:1002B4004EE00E9480030E947101A1EB44E00E9481
:1002C40080030E9471010E940D032FBE4F912F9055
:1002D4004F912F91DF91CF91FF91EF910895088174
:1002E4001C91003021F0402F411B4030B1F1202FF0
:1002F400212B2293110F1D9328F4E39520812F3194
:1003040081F1EA9588940695099310F400E808832E
:1003140008811C91202F012B02932695299310F418
:1003240000E80883110F1C9318F411E01E93A395A1
:10033400A39508811C91202F012B029326952993C4
:1003440028F4EA952081293FB9F0E3958894110FA8
:100354001C9310F411E01E93089500E008830C939D
:10036400089520918103220F19F0209381030895A9
:1003740043E040938303089520918203269519F066
:1003840020938203089544E0409383030895EF93F8
:10039400FF93CF93DF932F922FB6EAE0D2E0C0E52C
:1003A40001A921D007A11FD0058D1DD003891BD021
:1003B400018519D040E40E948003008114D0EAE052
:1003C40006A911D004A50FD002A10DD0008D0BD029
:1003D400068509D0048107D02FBE2F90DF91CF91DD
:1003E400FF91EF9108950F3121F4088110E8012B5A
:1003F4000883C395C395C3950895B2E0EF93FF9323
:100404002F932F922FB6409188034B3059F04F30E1
:1004140059F0433059F0413059F0473059F04930E0
:1004240059F012C0A2E909C0A5E907C0AEE905C0A8
:10043400A1EA03C0AAEA01C0ADEA0C9111E0012BC4
:100444000C9320E0209380032FBE2F902F91FF91D7
:10045400EF910895EF93FF934F93F1E0EEE0308135
:10046400E8E14081EEE04083E2E24081E8E140835C
:10047400ECE24081E2E24083E6E34081ECE2408347
:10048400E0E44081E6E34083EAE44081E0E4408341
:10049400E3E14081EAE44083EDE14081E3E140832C
:1004A400E7E24081EDE14083E1E34081E7E240831C
:1004B400EBE34081E1E34083E5E44081EBE3408307
:1004C400EFE44081E5E44083EFE43083E0E04F91E2
:1004D400FF91EF910895EF93FF934F93F1E0EFE4D1
:1004E4003081E5E44081EFE44083EBE34081E5E4DF
:1004F4004083E1E34081EBE34083E7E24081E1E3D1
:100504004083EDE14081E7E24083E3E14081EDE1B6
:100514004083EAE44081E3E14083E0E44081EAE4AB
:100524004083E6E34081E0E44083ECE24081E6E39B
:100534004083E2E24081ECE24083E8E14081E2E290
:100544004083EEE04081E8E14083EEE03083E0E088
:100554004F91FF91EF910895E0E0F1E009EF0093EE
:1005640012020FE10093130200E1009314020E94AF
:1005740017030FE10093120209EF0093130200E046
:10058400009314020E9417030FE1009312020FE17B
:100594000093130200E0009314020E94170309EF72
:1005A400009312020FE10093130200E1009314027E
:1005B4000E94170309EF0093120209EF009313023C
:1005C4000EE3009314020E9417030FE1009312023A
:1005D40009EF009313020FE1009314020E94170322
:1005E4000FE1009312020FE1009313020EE3009354
:1005F40014020E94170309EF009312020FE1009303
:10060400130200E1009314020E9417030E940D03D9
:10061400E0E0F1E0089540918103F1E0EEE44083ED
:1006240040918203ECE440830895209112022193C7
:1006340020E014E021931A95E9F720911302219305
:1006440020E013E021931A95E9F7209114022193F5
:10065400089500EF1FE00BB91AB908950FE010EFE9
:100664000BB91AB9089540918303423019F100C0BF
:100674001091860335911A95E9F720E115E02B983E
:1006840030FD2B9A2D982D9A36951A95C1F718E0BE
:1006940035911A95E9F72A9589F720E118E0329106
:1006A4001A95E9F72A95D1F71091860332911A9594
:1006B400E9F708952AE0308118E02B9830FD2B9A51
:1006C4002D982D9A36951A95C1F731912A9599F757
:1006D400089518E088942B9840918603141709F420
:1006E4002B9A2D982D9A1A95B1F708952C982C9A37
:1006F4001FEF00001A95E9F72C980895EAE0F1E05D
:10070400E3954A95E9F7089514E60000CFEF000059
:10071400CA95E9F71A95C9F7089518E52B982D9805
:100724002D9A1A95E1F72C982C9A2C980895E0E0CC
:10073400F1E000E018E501931A95E9F708950F92A6
:100744001F920FB6809187038B3729F08B3B41F0C2
:100754008B3D09F00AC08EE28093B200199A0EC054
:1007640088EF8093B200199A09C08FED8093B2008C
:10077400289804C028988FEE8093B2000FBE0F9083
:100784001F9018952F922F930F931F934F932FB66B
:100794000FEF1FEE009384001093850000918303F4
:1007A400013081F021E0209380030091880340917F
:1007B4008803069540274170440F440F440F402B93
:1007C400409388032FBE4F911F910F912F912F902B
:1007D40018951F932F932F922FB611E016BD0E94E8
:1007E400100111E02091910321272093910310918E
:1007F4009003113031F410E01093900311E0109342
:10080400920310918903113031F411E01093930392
:1008140010E0109389032FBE2F902F911F911895EC
:100824000F924F930FB640918303423009F40CC0EA
:100834004091840340FF0E944E04409184034395F9
:100844004093840300E00BBB0FBE4F910F901895AB
:100854000F931F932F922FB6109191031030A1F094
:1008640000917800109179001C3350F0439A183CA1
:1008740028F0429801E00093900306C0429A04C015
:10088400439801E0009389030BEE00937A002FBE96
:100894002F901F910F91189540918303413021F0BF
:1008A400433081F0443071F0439540938303B2E0C8
:1008B400D2E0C0E5A0E914E100E008830C931A95A6
:1008C400E1F7089541E04093830308950000000098
:1008D4000000000000000000000000000000001FF5
:1008E400000000000000001F000000000000001FC6
:1008F400000000000000001F0000000000000000D5
:1009040000000000000000000000000000000000E3
:100914000000000004040404040004000E040404A1
:10092400040404000E09090E0C0A09000609090F43
:10093400090909000E040404040404000708080655
:1009440001010E0000040201020400000000000086
:10095400000000000E09090E0C0A09000F08080F18
:1009640008080F0011111111110A040006090909E0
:100974000909060000000000000000000004020154
:100984000204000000040201020400000000000050
:10099400000000000000000000000000000402014C
:1009A4000204000000040201020400000000000030
:1009B400000000000F08080F08080F00111B151194
:1009C400111111000609090F090909000609080B8C
:1009D40009090600000000000000000000040E1BCE
:1009E4000E04000000040E1B0E04000000040E1B85
:1009F4000E04000000040E1B0E04000000040E1B75
:100A04000E04000000040E1B0E0400000000000091
:100A14000000000011111915131111100E04040423
:100A240004040E0011111111151B11000000000027
:100A3400000000000000000000000000090909098E
:100A4400090906000609090909090600110A04042E
:100A540004040404F4F464F46464F464F664EC6478
:100A6400F164E8EE64F0EFEEECF4F664F7F4F664A7
:100A7400F4F1F20164F164ECE864EE64EE64F064B1
:100A8400EFEEECF4F66401F4F664F4F1F2F06401D0
:040A9400010101015A
:00000001FF
