:020000020000FC
:020000001AC024
:02000C00B8C278
:100034007EC2239A249A259A22982A9A0FE010EFD6
:100044001AB90BB93A9A429A51E060E080E00E94F2
:10005400BF01789404E00093810001E014E0009370
:10006400680010936B0096E00E9440000E944A00D2
:1000740060E0429AF9CFF6E0E2E1089578E00E9468
:100084003A020E946D020E9478027A95C1F708959F
:10009400513069F0523059F0533079F0543069F0EE
:1000A4005530B9F05630A9F05730C9F00895F5E04D
:1000B400EAE800E000936F00089501E000936F0008
:1000C4000E9476000E949D000E948602F1E0E0E01A
:1000D400089500E000936F00F6E0E2E1089500E087
:1000E40000936F0051E0089529B1B8D139B1BBD163
:1000F400232B2B3D39F02B3739F02B3B39F02F3F95
:1001040039F0089582E0089584E0089586E0089522
:10011400823029F0843039F0863049F0089580E047
:100124000E944901089580E00E948401089580E0BE
:100134000E9420010895EAE0D2E0B2E0C0E5A0E91F
:1001440041E30E9480020E94EA00A3E947E20E9480
:1001540080020E94EA00A6E94DE10E9480020E940A
:10016400EA00A9E943E10E9480020E94EA00ACE9A6
:1001740049E00E9480020E94EA00AFE940E40E9444
:1001840080020E94EA00A2EA46E30E9480020E94E2
:10019400EA00A5EA4CE20E9480020E94EA00A8EA72
:1001A40042E20E9480020E94EA00ABEA48E10E9417
:1001B40080020E94EA00AEEA4EE00E9480020E94A1
:1001C400EA00A1EB44E00E9480020E94EA00089544
:1001D40008811C91003021F0402F411B403051F127
:1001E400202F212B2293110F1D9388940695099398
:1001F40010F400E8088308811C91202F012B02933E
:100204002695299310F400E80883110F1C9318F421
:1002140011E01E93A395A39508811C91202F012B17
:100224000293269529938894110F1C9310F411E0DE
:100234001E93089500E008830C930895EAE0C0E556
:1002440001A91BD007A119D0058D17D0038915D09A
:10025400018513D040E40E94800200810ED0EAE0C0
:1002640006A90BD004A509D002A107D0008D05D0A2
:10027400068503D0048101D008950F3121F408814B
:1002840010E8012B0883C395C395C3950895F1E045
:10029400EEE03081E8E14081EEE04083E2E240813B
:1002A400E8E14083ECE24081E2E24083E6E340811E
:1002B400ECE24083E0E44081E6E34083EAE4408109
:1002C400E0E44083E3E14081EAE44083EDE14081FE
:1002D400E3E14083E7E24081EDE14083E1E34081F3
:1002E400E7E24083EBE34081E1E34083E5E44081DE
:1002F400EBE34083EFE44081E5E44083EFE43083C3
:10030400E0E00895F1E0EFE43081E5E44081EFE4DA
:100314004083EBE34081E5E44083E1E34081EBE3A8
:100324004083E7E24081E1E34083EDE14081E7E29D
:100334004083E3E14081EDE14083EAE44081E3E18D
:100344004083E0E44081EAE44083E6E34081E0E482
:100354004083ECE24081E6E34083E2E24081ECE268
:100364004083E8E14081E2E24083EEE04081E8E15D
:100374004083EEE03083E0E00895E0E0F1E009EF4F
:10038400009312020FE10093130200E100931402A0
:100394000E941C020FE10093120209EF0093130262
:1003A40000E0009314020E941C020FE10093120269
:1003B4000FE10093130200E0009314020E941C0258
:1003C40009EF009312020FE10093130200E100937E
:1003D40014020E941C0209EF0093120209EF009319
:1003E40013020EE3009314020E941C020FE1009317
:1003F400120209EF009313020FE1009314020E940A
:100404001C020FE1009312020FE1009313020EE3AA
:10041400009314020E941C0209EF009312020FE1E0
:100424000093130200E1009314020E941C02E0E016
:10043400F1E0089520911202219320E014E0219329
:100444001A95E9F720911302219320E013E02193F8
:100454001A95E9F7209114022193089500EF1FE003
:100464000BB91AB908950FE010EF0BB91AB9089532
:10047400533011F1543001F1172F35911A95E9F7E2
:1004840020E115E02B9830FD2B9A2D982D9A369566
:100494001A95C1F718E035911A95E9F72A9589F765
:1004A40020E118E032911A95E9F72A95D1F7172F30
:1004B40032911A95E9F708952AE0308118E02B98D3
:1004C40030FD2B9A2D982D9A36951A95C1F73191B6
:1004D4002A9599F7089518E088942B98171709F42A
:1004E4002B9A2D982D9A1A95C1F708952C982C9A29
:1004F4001FEF00001A95E9F72C980895EAE0F1E05F
:10050400E3954A95E9F7089514E60000CFEF00005B
:10051400CA95E9F71A95C9F7089518E52B982D9807
:100524002D9A1A95E1F72C982C9A2C9808950FEF90
:100534001FED0093840010938500B2E0963061F0C3
:10054400953061F0943061F0933061F0923061F055
:10055400913061F096E01895A2E909C0A5E907C0B9
:10056400AEE905C0A1EA03C0AAEA01C0ADEA0C9154
:1005740011E0012B0C939A95189560FF539561E057
:1005840000E00BBB18950000000000000000000014
:100594000000000000000000001F00000000000038
:1005A400001F000000000000001F00000000000009
:1005B400001F000000000000000000000000000018
:1005C400000000000000000000000000000004041F
:1005D4000404040004000E040404040404000E09CA
:1005E400090E0C0A09000609090F090909000E047D
:1005F4000404040404000708080601010E000004B2
:1006040002010204000000000000000000000E09C6
:10061400090E0C0A09000F08080F08080F00111131
:100624001111110A0400060909090909060000004C
:1006340000000000000000040201020400000004A5
:10064400020102040000000000000000000000009D
:100654000000000000000004020102040000000485
:1006640002010204000000000000000000000F0866
:10067400080F08080F00111B1511111111000609AC
:10068400090F090909000609080B090906000004F5
:1006940002010204000000040201020400000F0829
:1006A400080F08080F00111B15111111110006097C
:1006B400090F090909000609080B090906000004C5
:1006C400020102040000000402010204000000040C
:1006D40002010204000000040201020400000F08E9
:1006E400080F08080F00111B15111111110006093C
:1006F400090F090909000609080B09090600000485
:1007040002010204000000040201020400000000CF
:0E0714000000000000000000000000000000D7
:00000001FF
