:020000020000FC
:020000001AC024
:1000340025C23A9A429A0FE810E71AB90BB90FEFA2
:1000440004B951E0E0E0F1E0789401E000936F003E
:1000540004E00093810008E00EBF0FEF0DBF09EF2D
:10006400009312020FE10093130200E100931402C3
:1000740010D10FE1009312020FE1009313020EE37B
:10008400009314020E944B010FE10093120209EF46
:10009400009313020FE1009314020E944B0109EF35
:1000A4000093120209EF009313020EE3009314026B
:1000B4000E944B0109EF009312020FE10093130217
:1000C40000E1009314020E944B010FE1009312021D
:1000D4000FE10093130200E0009314020E944B010D
:1000E4000FE10093120209EF0093130200E0009362
:1000F40014020E944B01E0E0F1E071E0C0EBD8E0B3
:1001040086E00E9469010E94BE0100C029B1D5D0D9
:1001140039B1D8D0232B273B71F0273DF1F1273E8D
:1001240021F051E0E0E0F1E0ECCF0E949A0151E0CF
:10013400E0E0F1E0E6CF4298A2D0E0E0F1E098D030
:100144000081003131F15BD0E0E0F1E0A0E2B2E007
:1001540000E001870D91038B0D91058F0D9107A38D
:100164000D9101AB0D9103AF7CD00D910083E0E0C4
:10017400F1E00D9104830D9106870D91008F0D918F
:1001840002A30D9104A70D9106AB72D00D910083CB
:100194005BD051E0E0E0F1E0B4CF429870D0E0E011
:1001A400F1E00185003139F12AD0E0E0F1E0A0E28C
:1001B400B2E0A3950D9101870D91038B0D91058FED
:1001C4000D9107A30D9101AB0D9103AF4AD00D9191
:1001D4000083E0E0F1E00D9104830D9106870D9119
:1001E400008F0D9102A30D9104A70D9106AB40D091
:1001F40000E0008329D051E0E0E0F1E082CFE0E0CC
:10020400F1E0A0E2B2E001850D9303890D93058D21
:100214000D9307A10D9301A90D9303AD0D9321D067
:1002240000810D93E0E0F1E004810D9306850D93C8
:10023400008D0D9302A10D9304A50D9306A90D93B2
:1002440017D000810D9308954FEF0000CFEF000009
:10025400D4E00000DA95E9F7CA95C9F74A95A9F7F9
:100264000895E0E0F1E015E401911A95E9F70895A5
:10027400E0E0F1E010E401911A95E9F7089518E53A
:100284002B982D982D9A1A95E1F72C982C9A2C9846
:10029400089560911202619360E014E061931A95ED
:1002A400E9F760911302619360E013E061931A959A
:1002B400E9F7609114026193089500E71FE80BB910
:1002C4001AB908950FE810E70BB91AB90895429ABC
:1002D4004AE028E0019188942B9A079508F02B981E
:1002E4002D982D9A2A95C1F74A9599F728E0952FCC
:1002F40088942B98991F08F42B9A2D982D9A2A9557
:10030400C1F72C980EEF00000A95E9F72C9A0EEF2E
:1003140000000A95E9F72C98550F5038C1F651E0C2
:10032400E0E0F1E0A0E2B2E0089501E0088308957E
:10033400C0EBD8E0E0E0F1E0A2E021E300E866D021
:1003440010811F31A1F0BAE02B0FE0E0E991AA95EA
:10035400A9F7A2E02EE000E859D010811F3139F04E
:10036400BAE02B0FE0E0E991AA95A9F702C000E8F2
:10037400088308953B9A4398C0EBD8E0E0E0F1E0AD
:1003840032E020E343D05DD09AE0290FE0E03A95D3
:10039400C9F7E0E0F1E0E0E032E02DE037D051D001
:1003A4009AE0290FE0E03A95C9F7E0E032E02AE16B
:1003B4002DD035D09AE0290FE0E03A95C9F7E0E076
:1003C40031E022E423D02BD09AE0290FE0E03A95E3
:1003D400C9F7E0E031E021E019D021D09AE0290FFB
:1003E400E0E03A95C9F7E0E032E02FE10FD017D012
:1003F4009AE0290FE0E03A95C9F7C0EBD8E000E0B5
:1004040014E109931A95E9F730D008950000209378
:10041400600290916002E3959A95E9F7089500814E
:100424001991012B000F019310F401E00083008166
:10043400000F019310F401E000830081000F00839A
:10044400089500811991012B06950083EA9510F413
:1004540000E80083008106950083EA9510F400E823
:10046400008300810695008308954FEA0000CFEFD2
:100474000000CA95E9F74A95C9F708950FEF1FECF4
:100484000093840010938500D8E0863001F1853014
:10049400D1F08430A1F0833071F0823041F08030AB
:1004A40011F08A951895C4EB86E03FDF1895C5EBEB
:1004B4008A953BDF1895C6EB8A9537DF1895C7EB0D
:1004C4008A9533DF1895C8EB8A952FDF1895C9EB09
:0604D4008A952BDF18954C
:00000001FF
