:020000020000FC
:0200000020C01E
:02000C0025C30A
:02003400FFC209
:1000400005C3239A249A259A22982A9A0FE010EF42
:100050001AB90BB93A9A429A51E060E080E00E94E6
:100060003402789405E00093810005E005BD01E0CD
:1000700014E00093680010936B0096E0B2E0D2E0C9
:10008000C0E5A0E914E100E008830C931A95E1F7BC
:100090000E9458000E94620060E0429A2091800312
:1000A0002130B1F70E948C01F3CFF6E0ECEE089519
:1000B00078E00E94AF020E94E2020E94ED027A956F
:1000C000C1F70895513069F0523059F05330A1F022
:1000D000543091F05530D1F05630C1F05730F1F036
:1000E0000895F6E0E4E625E02093810300E0009324
:1000F0006F0000936E00089501E000936F0000937D
:100100006E000E949300F1E0E0E0089500E00093AB
:100110006F0000936E00F6E0ECEE089500E00093AF
:100120006F0051E0089529B110D239B113D2232BB9
:100130002B3D39F02B3739F02B3B39F02F3F39F07D
:10014000089582E0089584E0089586E0089582305D
:1001500029F0843039F0863049F0089580E00E941B
:10016000BE01089580E00E94F901089580E00E9498
:100170005B010895EF93FF932F934F932F922FB628
:10018000EAE0D2E0B2E0C0E5A0E941E30E94F50276
:100190000E941301A3E947E20E94F5020E941301A5
:1001A000A6E94DE10E94F5020E941301A9E943E18D
:1001B0000E94F5020E941301ACE949E00E94F50299
:1001C0000E941301AFE940E40E94F5020E9413016E
:1001D000A2EA46E30E94F5020E941301A5EA4CE25E
:1001E0000E94F5020E941301A8EA42E20E94F50271
:1001F0000E941301ABEA48E10E94F5020E9413013C
:10020000AEEA4EE00E94F5020E941301A1EB44E029
:100210000E94F5020E9413012FBE2F904F912F9143
:10022000FF91EF91089508811C91003021F0402F3B
:10023000411B403089F1202F212B2293110F1D9358
:1002400028F4E39520812F3159F1EA958894069599
:10025000099310F400E8088308811C91202F012BDA
:1002600002932695299310F400E80883110F1C933C
:1002700018F411E01E93A395A39508811C91202FDB
:10028000012B029326952993A0F08894110F1C93BB
:1002900010F411E01E93089500E008830C93089574
:1002A000209181032A9519F020938103089555E048
:1002B000089555E00895EF93FF932F922FB6EAE04B
:1002C000C0E501A91FD007A11DD0058D1BD0038952
:1002D00019D0018517D040E40E94F502008112D0A8
:1002E000EAE006A90FD004A50DD002A10BD0008D25
:1002F00009D0068507D0048105D02FBE2F90FF912D
:10030000EF9108950F3121F4088110E8012B088343
:10031000C395C395C3950895B2E0EF93FF932F93D0
:100320002F922FB6963089F0953089F0943089F06D
:10033000933089F0923089F0913089F096E02FBEA9
:100340002F902F91FF91EF911895A2E909C0A5E98F
:1003500007C0AEE905C0A1EA03C0AAEA01C0ADEA40
:100360000C9111E0012B0C939A9520E020938003CF
:100370002FBE2F902F91FF91EF910895F1E0EEE0C5
:100380003081E8E14081EEE04083E2E24081E8E153
:100390004083ECE24081E2E24083E6E34081ECE22C
:1003A0004083E0E44081E6E34083EAE44081E0E426
:1003B0004083E3E14081EAE44083EDE14081E3E111
:1003C0004083E7E24081EDE14083E1E34081E7E201
:1003D0004083EBE34081E1E34083E5E44081EBE3EC
:1003E0004083EFE44081E5E44083EFE43083E0E0E4
:1003F0000895F1E0EFE43081E5E44081EFE44083EB
:10040000EBE34081E5E44083E1E34081EBE34083BB
:10041000E7E24081E1E34083EDE14081E7E24083B0
:10042000E3E14081EDE14083EAE44081E3E14083A0
:10043000E0E44081EAE44083E6E34081E0E4408395
:10044000ECE24081E6E34083E2E24081ECE240837B
:10045000E8E14081E2E24083EEE04081E8E1408370
:10046000EEE03083E0E00895E0E0F1E009EF009392
:1004700012020FE10093130200E1009314020E94A4
:1004800091020FE10093120209EF0093130200E0C2
:10049000009314020E9491020FE1009312020FE1F7
:1004A0000093130200E0009314020E94910209EFEE
:1004B000009312020FE10093130200E10093140273
:1004C0000E94910209EF0093120209EF00931302B8
:1004D0000EE3009314020E9491020FE100931202B6
:1004E00009EF009313020FE1009314020E9491029E
:1004F0000FE1009312020FE1009313020EE3009349
:1005000014020E94910209EF009312020FE100937E
:10051000130200E1009314020E949102E0E0F1E076
:10052000089520911202219320E014E021931A955E
:10053000E9F720911302219320E013E021931A950B
:10054000E9F7209114022193089500EF1FE00BB901
:100550001AB908950FE010EF0BB91AB90895533086
:1005600011F1543001F1172F35911A95E9F720E177
:1005700015E02B9830FD2B9A2D982D9A36951A95CB
:10058000C1F718E035911A95E9F72A9589F720E126
:1005900018E032911A95E9F72A95D1F7172F329181
:1005A0001A95E9F708952AE0308118E02B9830FD7C
:1005B0002B9A2D982D9A36951A95C1F731912A9537
:1005C00099F7089518E088942B98171709F42B9A37
:1005D0002D982D9A1A95C1F708952C982C9A1FEFF3
:1005E00000001A95E9F72C980895EAE0F1E0E39508
:1005F0004A95E9F7089514E60000CFEF0000CA9588
:10060000E9F71A95C9F7089518E52B982D982D9AB2
:100610001A95E1F72C982C9A2C980895EF93FF9354
:100620002F922F934F932FB62FBE4F912F912F9034
:10063000FF91EF910FEF1FED009384001093850061
:100640002F9321E0209380032F91189511E016BD80
:100650000E94BA004298189560FF539561E000E04F
:100660000BBB189500000000000000000000000017
:10067000000000000000001F000000000000001F3C
:10068000000000000000001F000000000000001F2C
:10069000000000000000000000000000000000005A
:1006A000000000000000000000000000040404043A
:1006B000040004000E040404040404000E09090EDE
:1006C0000C0A09000609090F090909000E040404AF
:1006D000040404000708080601010E0000040201DA
:1006E0000204000000000000000000000E09090ED6
:1006F0000C0A09000F08080F08080F00111111114A
:10070000110A040006090909090906000000000091
:1007100000000000000402010204000000040201C5
:1007200002040000000000000000000000000000C3
:1007300000000000000402010204000000040201A5
:100740000204000000000000000000000F08080F75
:1007500008080F00111B1511111111000609090FCE
:10076000090909000609080B09090600000402012D
:100770000204000000040201020400000F08080F38
:1007800008080F00111B1511111111000609090F9E
:10079000090909000609080B0909060000040201FD
:1007A000020400000004020102040000000402012F
:1007B0000204000000040201020400000F08080FF8
:1007C00008080F00111B1511111111000609090F5E
:1007D000090909000609080B0909060000040201BD
:1007E00002040000000402010204000000000000F6
:0C07F000000000000000000000000000FD
:00000001FF
