:020000020000FC
:0200000020C01E
:1000400012C23A9A429A0FE810E71AB90BB90FEFA9
:1000500004B951E0E0E0F1E008E00EBF0FEF0DBFA2
:10006000789401E000936E0005E005BD09EF009370
:1000700012020FE10093130200E10093140210D169
:100080000FE1009312020FE1009313020EE30093BD
:1000900014020E9450010FE10093120209EF009335
:1000A00013020FE1009314020E94500109EF009324
:1000B000120209EF009313020EE3009314020E9450
:1000C000500109EF009312020FE10093130200E1C7
:1000D000009314020E9450010FE1009312020FE1FD
:1000E0000093130200E0009314020E9450010FE1FC
:1000F0000093120209EF0093130200E00093140230
:100100000E945001E0E0F1E071E0C0EBD8E00E9415
:100110006E010E94CF0100C029B1D6D039B1D9D02B
:10012000232B273B79F0273DF9F1273E29F0FDD01D
:1001300051E0E0E0F1E0EBCF0E94AB0151E0E0E004
:10014000F1E0E5CF4298A2D0E0E0F1E098D0008164
:10015000003131F15BD0E0E0F1E0A0E2B2E000E09C
:1001600001870D91038B0D91058F0D9107A30D91C3
:1001700001AB0D9103AF7CD00D910083E0E0F1E085
:100180000D9104830D9106870D91008F0D9102A3AF
:100190000D9104A70D9106AB72D00D9100835BD039
:1001A00051E0E0E0F1E0B3CF429870D0E0E0F1E060
:1001B0000185003139F12AD0E0E0F1E0A0E2B2E0BF
:1001C000A3950D9101870D91038B0D91058F0D91D5
:1001D00007A30D9101AB0D9103AF4AD00D910083A0
:1001E000E0E0F1E00D9104830D9106870D91008F01
:1001F0000D9102A30D9104A70D9106AB40D000E034
:10020000008329D051E0E0E0F1E081CFE0E0F1E0CF
:10021000A0E2B2E001850D9303890D93058D0D9346
:1002200007A10D9301A90D9303AD0D9321D000817A
:100230000D93E0E0F1E004810D9306850D93008DB0
:100240000D9302A10D9304A50D9306A90D9317D04C
:1002500000810D9308954FEF0000CFEF0000D4E030
:100260000000DA95E9F7CA95C9F74A95A9F7089504
:10027000E0E0F1E015E401911A95E9F70895E0E076
:10028000F1E010E401911A95E9F7089518E52B982B
:100290002D982D9A1A95E1F72C982C9A2C98089560
:1002A00060911202619360E014E061931A95E9F79E
:1002B00060911302619360E013E061931A95E9F78E
:1002C000609114026193089500E71FE80BB91AB911
:1002D00008950FE810E70BB91AB90895429A4AE059
:1002E00028E0019188942B9A079508F02B982D9877
:1002F0002D9A2A95C1F74A9599F728E0952F889469
:100300002B98991F08F42B9A2D982D9A2A95C1F7AE
:100310002C982C9AA89BFECF550F5038F9F651E037
:10032000E0E0F1E0A0E2B2E00895C4EBD8E0E0E064
:10033000F1E0AAE029E100E85ED01081193F06C093
:10034000BAE02B0FE0E0E991AA95A9F700E0188147
:1003500010E019930895C0EBD8E0E0E0F1E0A2E0EE
:1003600021E300E848D010811F31A1F0BAE02B0F43
:10037000E0E0E991AA95A9F7A2E02EE000E83BD0E1
:1003800010811F3139F0BAE02B0FE0E0E991AA9516
:10039000A9F702C000E8088308953B9A4398C0EB90
:1003A000D8E0E0E0F1E032E020E325D03FD09AE071
:1003B000290FE0E03A95C9F7E0E0F1E0E0E032E053
:1003C0002DE019D033D09AE0290FE0E03A95C9F733
:1003D000E0E032E02AE10FD017D09AE0290FE0E008
:1003E0003A95C9F7C0EBD8E000E014E109931A95FB
:1003F000E9F730D0089500002093600290916002E8
:10040000E3959A95E9F7089500811991012B000F62
:10041000019310F401E000830081000F019310F4B8
:1004200001E000830081000F00830895008119918D
:10043000012B06950083EA9510F400E80083008103
:1004400006950083EA9510F400E800830081069584
:10045000008308954FE00000CFEF0000CA95E9F750
:0E0460004A95C9F708950AEF06BD2C98189525
:00000001FF
